{
  "contractName": "Protected",
  "abi": [
    {
      "constant": true,
      "inputs": [],
      "name": "owner",
      "outputs": [
        {
          "name": "",
          "type": "address"
        }
      ],
      "payable": false,
      "stateMutability": "view",
      "type": "function"
    },
    {
      "constant": true,
      "inputs": [],
      "name": "emergency",
      "outputs": [
        {
          "name": "",
          "type": "bool"
        }
      ],
      "payable": false,
      "stateMutability": "view",
      "type": "function"
    },
    {
      "constant": false,
      "inputs": [
        {
          "name": "newOwner",
          "type": "address"
        }
      ],
      "name": "transferOwnership",
      "outputs": [],
      "payable": false,
      "stateMutability": "nonpayable",
      "type": "function"
    },
    {
      "inputs": [],
      "payable": false,
      "stateMutability": "nonpayable",
      "type": "constructor"
    },
    {
      "anonymous": false,
      "inputs": [
        {
          "indexed": false,
          "name": "_value",
          "type": "bool"
        }
      ],
      "name": "Emergency",
      "type": "event"
    },
    {
      "constant": false,
      "inputs": [
        {
          "name": "_value",
          "type": "bool"
        }
      ],
      "name": "protectContract",
      "outputs": [
        {
          "name": "success",
          "type": "bool"
        }
      ],
      "payable": false,
      "stateMutability": "nonpayable",
      "type": "function"
    }
  ],
  "bytecode": "0x608060405234801561001057600080fd5b50336000806101000a81548173ffffffffffffffffffffffffffffffffffffffff021916908373ffffffffffffffffffffffffffffffffffffffff16021790555060008060146101000a81548160ff0219169083151502179055506104228061007a6000396000f3fe608060405260043610610062576000357c0100000000000000000000000000000000000000000000000000000000900463ffffffff16806362355399146100675780638da5cb5b146100bc578063caa6fea414610113578063f2fde38b14610142575b600080fd5b34801561007357600080fd5b506100a26004803603602081101561008a57600080fd5b81019080803515159060200190929190505050610193565b604051808215151515815260200191505060405180910390f35b3480156100c857600080fd5b506100d16102b7565b604051808273ffffffffffffffffffffffffffffffffffffffff1673ffffffffffffffffffffffffffffffffffffffff16815260200191505060405180910390f35b34801561011f57600080fd5b506101286102dc565b604051808215151515815260200191505060405180910390f35b34801561014e57600080fd5b506101916004803603602081101561016557600080fd5b81019080803573ffffffffffffffffffffffffffffffffffffffff1690602001909291905050506102ef565b005b60008060009054906101000a900473ffffffffffffffffffffffffffffffffffffffff1673ffffffffffffffffffffffffffffffffffffffff163373ffffffffffffffffffffffffffffffffffffffff16141515610259576040517f08c379a00000000000000000000000000000000000000000000000000000000081526004018080602001828103825260148152602001807f4f776e6572206f6e6c792066756e6374696f6e2e00000000000000000000000081525060200191505060405180910390fd5b81600060146101000a81548160ff0219169083151502179055507f68c3b30f53252b4a7ebb8cbe118f644313c1c59953a3eb90ba5f43a42d242ae182604051808215151515815260200191505060405180910390a160019050919050565b6000809054906101000a900473ffffffffffffffffffffffffffffffffffffffff1681565b600060149054906101000a900460ff1681565b6000809054906101000a900473ffffffffffffffffffffffffffffffffffffffff1673ffffffffffffffffffffffffffffffffffffffff163373ffffffffffffffffffffffffffffffffffffffff161415156103b3576040517f08c379a00000000000000000000000000000000000000000000000000000000081526004018080602001828103825260148152602001807f4f776e6572206f6e6c792066756e6374696f6e2e00000000000000000000000081525060200191505060405180910390fd5b806000806101000a81548173ffffffffffffffffffffffffffffffffffffffff021916908373ffffffffffffffffffffffffffffffffffffffff1602179055505056fea165627a7a72305820537b9cc6a3a79a796c68ba03dc53f351d392fe87e643623863c59e5cfb393c590029",
  "source": "pragma solidity ^0.5.0;\n\nimport \"./Owned.sol\";\n\ncontract Protected is Owned {\n  \n  // This Protected Contract implements features that\n  // act as a circuit breaker for the a contract.\n\n  bool public emergency;\n\n  // Event emitted when a emergency state is changed\n  event Emergency(bool _value);\n\n  constructor() public {\n    // Assigns an initial value to the emergency boolean\n    emergency = false;\n  }\n\n  modifier protected {\n    // It prevents a function's execution in case of emergency\n    // Acting like a circuit breaker\n    require(emergency == false, \"Current emergency state.\");\n    _;\n  }\n\n  // An owner only function that changes the protect boolean\n  function protectContract(bool _value) public onlyOwner returns (bool success) {\n    emergency = _value;\n    emit Emergency(_value);\n    return true;\n  }\n\n}",
  "sourcePath": "/Users/JAB/Sites/the_token/contracts/Protected.sol",
  "compiler": {
    "name": "solc",
    "version": "0.5.0+commit.1d4f565a.Emscripten.clang"
  },
  "schemaVersion": "3.0.1",
  "updatedAt": "2019-01-26T06:37:21.863Z",
  "devdoc": {
    "methods": {}
  },
  "userdoc": {
    "methods": {}
  }
}